{
  "address": "0x8d067B058CE524E5979d846979f7db7E2953e2F5",
  "abi": [
    {
      "inputs": [
        {
          "internalType": "uint256",
          "name": "maxSupply",
          "type": "uint256"
        },
        {
          "internalType": "uint256",
          "name": "mintFee",
          "type": "uint256"
        },
        {
          "internalType": "uint256",
          "name": "maxMint",
          "type": "uint256"
        },
        {
          "internalType": "string",
          "name": "tokenName",
          "type": "string"
        },
        {
          "internalType": "string",
          "name": "tokenSymbol",
          "type": "string"
        }
      ],
      "stateMutability": "nonpayable",
      "type": "constructor"
    },
    {
      "inputs": [],
      "name": "MyToken__MaxMintReached",
      "type": "error"
    },
    {
      "inputs": [],
      "name": "MyToken__MaxSupplyReached",
      "type": "error"
    },
    {
      "inputs": [],
      "name": "MyToken__NeedMoreETHSent",
      "type": "error"
    },
    {
      "inputs": [],
      "name": "MyToken__TransferFailed",
      "type": "error"
    },
    {
      "anonymous": false,
      "inputs": [
        {
          "indexed": true,
          "internalType": "address",
          "name": "owner",
          "type": "address"
        },
        {
          "indexed": true,
          "internalType": "address",
          "name": "approved",
          "type": "address"
        },
        {
          "indexed": true,
          "internalType": "uint256",
          "name": "tokenId",
          "type": "uint256"
        }
      ],
      "name": "Approval",
      "type": "event"
    },
    {
      "anonymous": false,
      "inputs": [
        {
          "indexed": true,
          "internalType": "address",
          "name": "owner",
          "type": "address"
        },
        {
          "indexed": true,
          "internalType": "address",
          "name": "operator",
          "type": "address"
        },
        {
          "indexed": false,
          "internalType": "bool",
          "name": "approved",
          "type": "bool"
        }
      ],
      "name": "ApprovalForAll",
      "type": "event"
    },
    {
      "anonymous": false,
      "inputs": [
        {
          "indexed": true,
          "internalType": "address",
          "name": "previousOwner",
          "type": "address"
        },
        {
          "indexed": true,
          "internalType": "address",
          "name": "newOwner",
          "type": "address"
        }
      ],
      "name": "OwnershipTransferred",
      "type": "event"
    },
    {
      "anonymous": false,
      "inputs": [
        {
          "indexed": true,
          "internalType": "address",
          "name": "from",
          "type": "address"
        },
        {
          "indexed": true,
          "internalType": "address",
          "name": "to",
          "type": "address"
        },
        {
          "indexed": true,
          "internalType": "uint256",
          "name": "tokenId",
          "type": "uint256"
        }
      ],
      "name": "Transfer",
      "type": "event"
    },
    {
      "inputs": [
        {
          "internalType": "address",
          "name": "to",
          "type": "address"
        },
        {
          "internalType": "uint256",
          "name": "tokenId",
          "type": "uint256"
        }
      ],
      "name": "approve",
      "outputs": [],
      "stateMutability": "nonpayable",
      "type": "function"
    },
    {
      "inputs": [
        {
          "internalType": "address",
          "name": "owner",
          "type": "address"
        }
      ],
      "name": "balanceOf",
      "outputs": [
        {
          "internalType": "uint256",
          "name": "",
          "type": "uint256"
        }
      ],
      "stateMutability": "view",
      "type": "function"
    },
    {
      "inputs": [
        {
          "internalType": "uint256",
          "name": "tokenId",
          "type": "uint256"
        }
      ],
      "name": "getApproved",
      "outputs": [
        {
          "internalType": "address",
          "name": "",
          "type": "address"
        }
      ],
      "stateMutability": "view",
      "type": "function"
    },
    {
      "inputs": [],
      "name": "getMaxMint",
      "outputs": [
        {
          "internalType": "uint256",
          "name": "",
          "type": "uint256"
        }
      ],
      "stateMutability": "view",
      "type": "function"
    },
    {
      "inputs": [],
      "name": "getMaxSupply",
      "outputs": [
        {
          "internalType": "uint256",
          "name": "",
          "type": "uint256"
        }
      ],
      "stateMutability": "view",
      "type": "function"
    },
    {
      "inputs": [
        {
          "internalType": "address",
          "name": "owner",
          "type": "address"
        }
      ],
      "name": "getMintCount",
      "outputs": [
        {
          "internalType": "uint256",
          "name": "",
          "type": "uint256"
        }
      ],
      "stateMutability": "view",
      "type": "function"
    },
    {
      "inputs": [],
      "name": "getMintFee",
      "outputs": [
        {
          "internalType": "uint256",
          "name": "",
          "type": "uint256"
        }
      ],
      "stateMutability": "view",
      "type": "function"
    },
    {
      "inputs": [],
      "name": "getTokenCounter",
      "outputs": [
        {
          "internalType": "uint256",
          "name": "",
          "type": "uint256"
        }
      ],
      "stateMutability": "view",
      "type": "function"
    },
    {
      "inputs": [
        {
          "internalType": "address",
          "name": "owner",
          "type": "address"
        },
        {
          "internalType": "address",
          "name": "operator",
          "type": "address"
        }
      ],
      "name": "isApprovedForAll",
      "outputs": [
        {
          "internalType": "bool",
          "name": "",
          "type": "bool"
        }
      ],
      "stateMutability": "view",
      "type": "function"
    },
    {
      "inputs": [],
      "name": "name",
      "outputs": [
        {
          "internalType": "string",
          "name": "",
          "type": "string"
        }
      ],
      "stateMutability": "view",
      "type": "function"
    },
    {
      "inputs": [],
      "name": "owner",
      "outputs": [
        {
          "internalType": "address",
          "name": "",
          "type": "address"
        }
      ],
      "stateMutability": "view",
      "type": "function"
    },
    {
      "inputs": [
        {
          "internalType": "uint256",
          "name": "tokenId",
          "type": "uint256"
        }
      ],
      "name": "ownerOf",
      "outputs": [
        {
          "internalType": "address",
          "name": "",
          "type": "address"
        }
      ],
      "stateMutability": "view",
      "type": "function"
    },
    {
      "inputs": [],
      "name": "renounceOwnership",
      "outputs": [],
      "stateMutability": "nonpayable",
      "type": "function"
    },
    {
      "inputs": [
        {
          "internalType": "string",
          "name": "uri",
          "type": "string"
        }
      ],
      "name": "safeMint",
      "outputs": [],
      "stateMutability": "payable",
      "type": "function"
    },
    {
      "inputs": [
        {
          "internalType": "address",
          "name": "from",
          "type": "address"
        },
        {
          "internalType": "address",
          "name": "to",
          "type": "address"
        },
        {
          "internalType": "uint256",
          "name": "tokenId",
          "type": "uint256"
        }
      ],
      "name": "safeTransferFrom",
      "outputs": [],
      "stateMutability": "nonpayable",
      "type": "function"
    },
    {
      "inputs": [
        {
          "internalType": "address",
          "name": "from",
          "type": "address"
        },
        {
          "internalType": "address",
          "name": "to",
          "type": "address"
        },
        {
          "internalType": "uint256",
          "name": "tokenId",
          "type": "uint256"
        },
        {
          "internalType": "bytes",
          "name": "data",
          "type": "bytes"
        }
      ],
      "name": "safeTransferFrom",
      "outputs": [],
      "stateMutability": "nonpayable",
      "type": "function"
    },
    {
      "inputs": [
        {
          "internalType": "address",
          "name": "operator",
          "type": "address"
        },
        {
          "internalType": "bool",
          "name": "approved",
          "type": "bool"
        }
      ],
      "name": "setApprovalForAll",
      "outputs": [],
      "stateMutability": "nonpayable",
      "type": "function"
    },
    {
      "inputs": [
        {
          "internalType": "bytes4",
          "name": "interfaceId",
          "type": "bytes4"
        }
      ],
      "name": "supportsInterface",
      "outputs": [
        {
          "internalType": "bool",
          "name": "",
          "type": "bool"
        }
      ],
      "stateMutability": "view",
      "type": "function"
    },
    {
      "inputs": [],
      "name": "symbol",
      "outputs": [
        {
          "internalType": "string",
          "name": "",
          "type": "string"
        }
      ],
      "stateMutability": "view",
      "type": "function"
    },
    {
      "inputs": [
        {
          "internalType": "uint256",
          "name": "index",
          "type": "uint256"
        }
      ],
      "name": "tokenByIndex",
      "outputs": [
        {
          "internalType": "uint256",
          "name": "",
          "type": "uint256"
        }
      ],
      "stateMutability": "view",
      "type": "function"
    },
    {
      "inputs": [
        {
          "internalType": "address",
          "name": "owner",
          "type": "address"
        },
        {
          "internalType": "uint256",
          "name": "index",
          "type": "uint256"
        }
      ],
      "name": "tokenOfOwnerByIndex",
      "outputs": [
        {
          "internalType": "uint256",
          "name": "",
          "type": "uint256"
        }
      ],
      "stateMutability": "view",
      "type": "function"
    },
    {
      "inputs": [
        {
          "internalType": "uint256",
          "name": "tokenId",
          "type": "uint256"
        }
      ],
      "name": "tokenURI",
      "outputs": [
        {
          "internalType": "string",
          "name": "",
          "type": "string"
        }
      ],
      "stateMutability": "view",
      "type": "function"
    },
    {
      "inputs": [],
      "name": "totalSupply",
      "outputs": [
        {
          "internalType": "uint256",
          "name": "",
          "type": "uint256"
        }
      ],
      "stateMutability": "view",
      "type": "function"
    },
    {
      "inputs": [
        {
          "internalType": "address",
          "name": "from",
          "type": "address"
        },
        {
          "internalType": "address",
          "name": "to",
          "type": "address"
        },
        {
          "internalType": "uint256",
          "name": "tokenId",
          "type": "uint256"
        }
      ],
      "name": "transferFrom",
      "outputs": [],
      "stateMutability": "nonpayable",
      "type": "function"
    },
    {
      "inputs": [
        {
          "internalType": "address",
          "name": "newOwner",
          "type": "address"
        }
      ],
      "name": "transferOwnership",
      "outputs": [],
      "stateMutability": "nonpayable",
      "type": "function"
    },
    {
      "inputs": [],
      "name": "withdraw",
      "outputs": [],
      "stateMutability": "nonpayable",
      "type": "function"
    }
  ],
  "transactionHash": "0x965702761d93bf963923bf2a815ac9f1a47e032c1e8ae00619a35902f5bfa6fa",
  "args": [
    10000,
    "10000000000000000",
    2,
    "MyToken",
    "MYT"
  ],
  "numDeployments": 2,
  "solcInputHash": "2969058abae7482e839779899dadecda",
  "bytecode": "0x60e06040523480156200001157600080fd5b5060405162003f6838038062003f688339818101604052810190620000379190620002c3565b81818160009080519060200190620000519291906200017e565b5080600190805190602001906200006a9291906200017e565b5050506200008d62000081620000b060201b60201c565b620000b860201b60201c565b84608081815250508360a081815250508260c08181525050505050505062000531565b600033905090565b6000600b60009054906101000a900473ffffffffffffffffffffffffffffffffffffffff16905081600b60006101000a81548173ffffffffffffffffffffffffffffffffffffffff021916908373ffffffffffffffffffffffffffffffffffffffff1602179055508173ffffffffffffffffffffffffffffffffffffffff168173ffffffffffffffffffffffffffffffffffffffff167f8be0079c531659141344cd1fd0a4f28419497f9722a3daafe3b4186f6b6457e060405160405180910390a35050565b8280546200018c9062000428565b90600052602060002090601f016020900481019282620001b05760008555620001fc565b82601f10620001cb57805160ff1916838001178555620001fc565b82800160010185558215620001fc579182015b82811115620001fb578251825591602001919060010190620001de565b5b5090506200020b91906200020f565b5090565b5b808211156200022a57600081600090555060010162000210565b5090565b6000620002456200023f84620003b2565b62000389565b905082815260208101848484011115620002645762000263620004f7565b5b62000271848285620003f2565b509392505050565b600082601f830112620002915762000290620004f2565b5b8151620002a38482602086016200022e565b91505092915050565b600081519050620002bd8162000517565b92915050565b600080600080600060a08688031215620002e257620002e162000501565b5b6000620002f288828901620002ac565b95505060206200030588828901620002ac565b94505060406200031888828901620002ac565b935050606086015167ffffffffffffffff8111156200033c576200033b620004fc565b5b6200034a8882890162000279565b925050608086015167ffffffffffffffff8111156200036e576200036d620004fc565b5b6200037c8882890162000279565b9150509295509295909350565b600062000395620003a8565b9050620003a382826200045e565b919050565b6000604051905090565b600067ffffffffffffffff821115620003d057620003cf620004c3565b5b620003db8262000506565b9050602081019050919050565b6000819050919050565b60005b8381101562000412578082015181840152602081019050620003f5565b8381111562000422576000848401525b50505050565b600060028204905060018216806200044157607f821691505b6020821081141562000458576200045762000494565b5b50919050565b620004698262000506565b810181811067ffffffffffffffff821117156200048b576200048a620004c3565b5b80604052505050565b7f4e487b7100000000000000000000000000000000000000000000000000000000600052602260045260246000fd5b7f4e487b7100000000000000000000000000000000000000000000000000000000600052604160045260246000fd5b600080fd5b600080fd5b600080fd5b600080fd5b6000601f19601f8301169050919050565b6200052281620003e8565b81146200052e57600080fd5b50565b60805160a05160c0516139f262000576600039600081816108560152610ca5015260008181610bf20152610e51015260008181610a570152610c4c01526139f26000f3fe6080604052600436106101815760003560e01c8063695850fb116100d157806395d89b411161008a578063b88d4fde11610064578063b88d4fde14610577578063c87b56dd146105a0578063e985e9c5146105dd578063f2fde38b1461061a57610181565b806395d89b41146104e6578063a22cb46514610511578063a2801f571461053a57610181565b8063695850fb146103f55780636e02007d1461041157806370a082311461043c578063715018a6146104795780637a5caab3146104905780638da5cb5b146104bb57610181565b806323b872dd1161013e57806342842e0e1161011857806342842e0e146103275780634c0f38c2146103505780634f6ccce71461037b5780636352211e146103b857610181565b806323b872dd146102aa5780632f745c59146102d35780633ccfd60b1461031057610181565b806301ffc9a71461018657806306fdde03146101c3578063081812fc146101ee578063095ea7b31461022b57806318160ddd146102545780631f46452f1461027f575b600080fd5b34801561019257600080fd5b506101ad60048036038101906101a891906129de565b610643565b6040516101ba9190612e71565b60405180910390f35b3480156101cf57600080fd5b506101d8610655565b6040516101e59190612e8c565b60405180910390f35b3480156101fa57600080fd5b5061021560048036038101906102109190612a81565b6106e7565b6040516102229190612e0a565b60405180910390f35b34801561023757600080fd5b50610252600480360381019061024d919061299e565b61072d565b005b34801561026057600080fd5b50610269610845565b60405161027691906130ae565b60405180910390f35b34801561028b57600080fd5b50610294610852565b6040516102a191906130ae565b60405180910390f35b3480156102b657600080fd5b506102d160048036038101906102cc9190612888565b61087a565b005b3480156102df57600080fd5b506102fa60048036038101906102f5919061299e565b6108da565b60405161030791906130ae565b60405180910390f35b34801561031c57600080fd5b5061032561097f565b005b34801561033357600080fd5b5061034e60048036038101906103499190612888565b610a33565b005b34801561035c57600080fd5b50610365610a53565b60405161037291906130ae565b60405180910390f35b34801561038757600080fd5b506103a2600480360381019061039d9190612a81565b610a7b565b6040516103af91906130ae565b60405180910390f35b3480156103c457600080fd5b506103df60048036038101906103da9190612a81565b610aec565b6040516103ec9190612e0a565b60405180910390f35b61040f600480360381019061040a9190612a38565b610b9e565b005b34801561041d57600080fd5b50610426610d70565b60405161043391906130ae565b60405180910390f35b34801561044857600080fd5b50610463600480360381019061045e919061281b565b610d81565b60405161047091906130ae565b60405180910390f35b34801561048557600080fd5b5061048e610e39565b005b34801561049c57600080fd5b506104a5610e4d565b6040516104b291906130ae565b60405180910390f35b3480156104c757600080fd5b506104d0610e75565b6040516104dd9190612e0a565b60405180910390f35b3480156104f257600080fd5b506104fb610e9f565b6040516105089190612e8c565b60405180910390f35b34801561051d57600080fd5b506105386004803603810190610533919061295e565b610f31565b005b34801561054657600080fd5b50610561600480360381019061055c919061281b565b610f47565b60405161056e91906130ae565b60405180910390f35b34801561058357600080fd5b5061059e600480360381019061059991906128db565b610f90565b005b3480156105ac57600080fd5b506105c760048036038101906105c29190612a81565b610ff2565b6040516105d49190612e8c565b60405180910390f35b3480156105e957600080fd5b5061060460048036038101906105ff9190612848565b611004565b6040516106119190612e71565b60405180910390f35b34801561062657600080fd5b50610641600480360381019061063c919061281b565b611098565b005b600061064e8261111c565b9050919050565b6060600080546106649061330f565b80601f01602080910402602001604051908101604052809291908181526020018280546106909061330f565b80156106dd5780601f106106b2576101008083540402835291602001916106dd565b820191906000526020600020905b8154815290600101906020018083116106c057829003601f168201915b5050505050905090565b60006106f282611196565b6004600083815260200190815260200160002060009054906101000a900473ffffffffffffffffffffffffffffffffffffffff169050919050565b600061073882610aec565b90508073ffffffffffffffffffffffffffffffffffffffff168373ffffffffffffffffffffffffffffffffffffffff1614156107a9576040517f08c379a00000000000000000000000000000000000000000000000000000000081526004016107a09061304e565b60405180910390fd5b8073ffffffffffffffffffffffffffffffffffffffff166107c86111e1565b73ffffffffffffffffffffffffffffffffffffffff1614806107f757506107f6816107f16111e1565b611004565b5b610836576040517f08c379a000000000000000000000000000000000000000000000000000000000815260040161082d90612fce565b60405180910390fd5b61084083836111e9565b505050565b6000600880549050905090565b60007f0000000000000000000000000000000000000000000000000000000000000000905090565b61088b6108856111e1565b826112a2565b6108ca576040517f08c379a00000000000000000000000000000000000000000000000000000000081526004016108c19061308e565b60405180910390fd5b6108d5838383611337565b505050565b60006108e583610d81565b8210610926576040517f08c379a000000000000000000000000000000000000000000000000000000000815260040161091d90612eae565b60405180910390fd5b600660008473ffffffffffffffffffffffffffffffffffffffff1673ffffffffffffffffffffffffffffffffffffffff168152602001908152602001600020600083815260200190815260200160002054905092915050565b61098761159e565b600047905060003373ffffffffffffffffffffffffffffffffffffffff16826040516109b290612df5565b60006040518083038185875af1925050503d80600081146109ef576040519150601f19603f3d011682016040523d82523d6000602084013e6109f4565b606091505b5050905080610a2f576040517f369cefe900000000000000000000000000000000000000000000000000000000815260040160405180910390fd5b5050565b610a4e83838360405180602001604052806000815250610f90565b505050565b60007f0000000000000000000000000000000000000000000000000000000000000000905090565b6000610a85610845565b8210610ac6576040517f08c379a0000000000000000000000000000000000000000000000000000000008152600401610abd9061306e565b60405180910390fd5b60088281548110610ada57610ad96134a8565b5b90600052602060002001549050919050565b6000806002600084815260200190815260200160002060009054906101000a900473ffffffffffffffffffffffffffffffffffffffff169050600073ffffffffffffffffffffffffffffffffffffffff168173ffffffffffffffffffffffffffffffffffffffff161415610b95576040517f08c379a0000000000000000000000000000000000000000000000000000000008152600401610b8c9061302e565b60405180910390fd5b80915050919050565b6000610baa600d61161c565b90506000600c60003373ffffffffffffffffffffffffffffffffffffffff1673ffffffffffffffffffffffffffffffffffffffff1681526020019081526020016000205490507f0000000000000000000000000000000000000000000000000000000000000000341015610c4a576040517fe102e1a700000000000000000000000000000000000000000000000000000000815260040160405180910390fd5b7f00000000000000000000000000000000000000000000000000000000000000008210610ca3576040517fcedb77a700000000000000000000000000000000000000000000000000000000815260040160405180910390fd5b7f0000000000000000000000000000000000000000000000000000000000000000811415610cfd576040517fb9ac4bbf00000000000000000000000000000000000000000000000000000000815260040160405180910390fd5b610d07600d61162a565b610d113383611640565b610d1b828461165e565b600181610d28919061319e565b600c60003373ffffffffffffffffffffffffffffffffffffffff1673ffffffffffffffffffffffffffffffffffffffff16815260200190815260200160002081905550505050565b6000610d7c600d61161c565b905090565b60008073ffffffffffffffffffffffffffffffffffffffff168273ffffffffffffffffffffffffffffffffffffffff161415610df2576040517f08c379a0000000000000000000000000000000000000000000000000000000008152600401610de990612f8e565b60405180910390fd5b600360008373ffffffffffffffffffffffffffffffffffffffff1673ffffffffffffffffffffffffffffffffffffffff168152602001908152602001600020549050919050565b610e4161159e565b610e4b60006116d2565b565b60007f0000000000000000000000000000000000000000000000000000000000000000905090565b6000600b60009054906101000a900473ffffffffffffffffffffffffffffffffffffffff16905090565b606060018054610eae9061330f565b80601f0160208091040260200160405190810160405280929190818152602001828054610eda9061330f565b8015610f275780601f10610efc57610100808354040283529160200191610f27565b820191906000526020600020905b815481529060010190602001808311610f0a57829003601f168201915b5050505050905090565b610f43610f3c6111e1565b8383611798565b5050565b6000600c60008373ffffffffffffffffffffffffffffffffffffffff1673ffffffffffffffffffffffffffffffffffffffff168152602001908152602001600020549050919050565b610fa1610f9b6111e1565b836112a2565b610fe0576040517f08c379a0000000000000000000000000000000000000000000000000000000008152600401610fd79061308e565b60405180910390fd5b610fec84848484611905565b50505050565b6060610ffd82611961565b9050919050565b6000600560008473ffffffffffffffffffffffffffffffffffffffff1673ffffffffffffffffffffffffffffffffffffffff16815260200190815260200160002060008373ffffffffffffffffffffffffffffffffffffffff1673ffffffffffffffffffffffffffffffffffffffff16815260200190815260200160002060009054906101000a900460ff16905092915050565b6110a061159e565b600073ffffffffffffffffffffffffffffffffffffffff168173ffffffffffffffffffffffffffffffffffffffff161415611110576040517f08c379a000000000000000000000000000000000000000000000000000000000815260040161110790612eee565b60405180910390fd5b611119816116d2565b50565b60007f780e9d63000000000000000000000000000000000000000000000000000000007bffffffffffffffffffffffffffffffffffffffffffffffffffffffff1916827bffffffffffffffffffffffffffffffffffffffffffffffffffffffff1916148061118f575061118e82611a74565b5b9050919050565b61119f81611b56565b6111de576040517f08c379a00000000000000000000000000000000000000000000000000000000081526004016111d59061302e565b60405180910390fd5b50565b600033905090565b816004600083815260200190815260200160002060006101000a81548173ffffffffffffffffffffffffffffffffffffffff021916908373ffffffffffffffffffffffffffffffffffffffff160217905550808273ffffffffffffffffffffffffffffffffffffffff1661125c83610aec565b73ffffffffffffffffffffffffffffffffffffffff167f8c5be1e5ebec7d5bd14f71427d1e84f3dd0314c0f7b2291e5b200ac8c7c3b92560405160405180910390a45050565b6000806112ae83610aec565b90508073ffffffffffffffffffffffffffffffffffffffff168473ffffffffffffffffffffffffffffffffffffffff1614806112f057506112ef8185611004565b5b8061132e57508373ffffffffffffffffffffffffffffffffffffffff16611316846106e7565b73ffffffffffffffffffffffffffffffffffffffff16145b91505092915050565b8273ffffffffffffffffffffffffffffffffffffffff1661135782610aec565b73ffffffffffffffffffffffffffffffffffffffff16146113ad576040517f08c379a00000000000000000000000000000000000000000000000000000000081526004016113a490612f0e565b60405180910390fd5b600073ffffffffffffffffffffffffffffffffffffffff168273ffffffffffffffffffffffffffffffffffffffff16141561141d576040517f08c379a000000000000000000000000000000000000000000000000000000000815260040161141490612f4e565b60405180910390fd5b611428838383611bc2565b6114336000826111e9565b6001600360008573ffffffffffffffffffffffffffffffffffffffff1673ffffffffffffffffffffffffffffffffffffffff16815260200190815260200160002060008282546114839190613225565b925050819055506001600360008473ffffffffffffffffffffffffffffffffffffffff1673ffffffffffffffffffffffffffffffffffffffff16815260200190815260200160002060008282546114da919061319e565b92505081905550816002600083815260200190815260200160002060006101000a81548173ffffffffffffffffffffffffffffffffffffffff021916908373ffffffffffffffffffffffffffffffffffffffff160217905550808273ffffffffffffffffffffffffffffffffffffffff168473ffffffffffffffffffffffffffffffffffffffff167fddf252ad1be2c89b69c2b068fc378daa952ba7f163c4a11628f55a4df523b3ef60405160405180910390a4611599838383611bd2565b505050565b6115a66111e1565b73ffffffffffffffffffffffffffffffffffffffff166115c4610e75565b73ffffffffffffffffffffffffffffffffffffffff161461161a576040517f08c379a00000000000000000000000000000000000000000000000000000000081526004016116119061300e565b60405180910390fd5b565b600081600001549050919050565b6001816000016000828254019250508190555050565b61165a828260405180602001604052806000815250611bd7565b5050565b61166782611b56565b6116a6576040517f08c379a000000000000000000000000000000000000000000000000000000000815260040161169d90612fae565b60405180910390fd5b80600a600084815260200190815260200160002090805190602001906116cd92919061262f565b505050565b6000600b60009054906101000a900473ffffffffffffffffffffffffffffffffffffffff16905081600b60006101000a81548173ffffffffffffffffffffffffffffffffffffffff021916908373ffffffffffffffffffffffffffffffffffffffff1602179055508173ffffffffffffffffffffffffffffffffffffffff168173ffffffffffffffffffffffffffffffffffffffff167f8be0079c531659141344cd1fd0a4f28419497f9722a3daafe3b4186f6b6457e060405160405180910390a35050565b8173ffffffffffffffffffffffffffffffffffffffff168373ffffffffffffffffffffffffffffffffffffffff161415611807576040517f08c379a00000000000000000000000000000000000000000000000000000000081526004016117fe90612f6e565b60405180910390fd5b80600560008573ffffffffffffffffffffffffffffffffffffffff1673ffffffffffffffffffffffffffffffffffffffff16815260200190815260200160002060008473ffffffffffffffffffffffffffffffffffffffff1673ffffffffffffffffffffffffffffffffffffffff16815260200190815260200160002060006101000a81548160ff0219169083151502179055508173ffffffffffffffffffffffffffffffffffffffff168373ffffffffffffffffffffffffffffffffffffffff167f17307eab39ab6107e8899845ad3d59bd9653f200f220920489ca2b5937696c31836040516118f89190612e71565b60405180910390a3505050565b611910848484611337565b61191c84848484611c32565b61195b576040517f08c379a000000000000000000000000000000000000000000000000000000000815260040161195290612ece565b60405180910390fd5b50505050565b606061196c82611196565b6000600a6000848152602001908152602001600020805461198c9061330f565b80601f01602080910402602001604051908101604052809291908181526020018280546119b89061330f565b8015611a055780601f106119da57610100808354040283529160200191611a05565b820191906000526020600020905b8154815290600101906020018083116119e857829003601f168201915b505050505090506000611a16611dc9565b9050600081511415611a2c578192505050611a6f565b600082511115611a61578082604051602001611a49929190612dd1565b60405160208183030381529060405292505050611a6f565b611a6a84611de0565b925050505b919050565b60007f80ac58cd000000000000000000000000000000000000000000000000000000007bffffffffffffffffffffffffffffffffffffffffffffffffffffffff1916827bffffffffffffffffffffffffffffffffffffffffffffffffffffffff19161480611b3f57507f5b5e139f000000000000000000000000000000000000000000000000000000007bffffffffffffffffffffffffffffffffffffffffffffffffffffffff1916827bffffffffffffffffffffffffffffffffffffffffffffffffffffffff1916145b80611b4f5750611b4e82611e48565b5b9050919050565b60008073ffffffffffffffffffffffffffffffffffffffff166002600084815260200190815260200160002060009054906101000a900473ffffffffffffffffffffffffffffffffffffffff1673ffffffffffffffffffffffffffffffffffffffff1614159050919050565b611bcd838383611eb2565b505050565b505050565b611be18383611fc6565b611bee6000848484611c32565b611c2d576040517f08c379a0000000000000000000000000000000000000000000000000000000008152600401611c2490612ece565b60405180910390fd5b505050565b6000611c538473ffffffffffffffffffffffffffffffffffffffff166121a0565b15611dbc578373ffffffffffffffffffffffffffffffffffffffff1663150b7a02611c7c6111e1565b8786866040518563ffffffff1660e01b8152600401611c9e9493929190612e25565b602060405180830381600087803b158015611cb857600080fd5b505af1925050508015611ce957506040513d601f19601f82011682018060405250810190611ce69190612a0b565b60015b611d6c573d8060008114611d19576040519150601f19603f3d011682016040523d82523d6000602084013e611d1e565b606091505b50600081511415611d64576040517f08c379a0000000000000000000000000000000000000000000000000000000008152600401611d5b90612ece565b60405180910390fd5b805181602001fd5b63150b7a0260e01b7bffffffffffffffffffffffffffffffffffffffffffffffffffffffff1916817bffffffffffffffffffffffffffffffffffffffffffffffffffffffff191614915050611dc1565b600190505b949350505050565b606060405180602001604052806000815250905090565b6060611deb82611196565b6000611df5611dc9565b90506000815111611e155760405180602001604052806000815250611e40565b80611e1f846121c3565b604051602001611e30929190612dd1565b6040516020818303038152906040525b915050919050565b60007f01ffc9a7000000000000000000000000000000000000000000000000000000007bffffffffffffffffffffffffffffffffffffffffffffffffffffffff1916827bffffffffffffffffffffffffffffffffffffffffffffffffffffffff1916149050919050565b611ebd838383612324565b600073ffffffffffffffffffffffffffffffffffffffff168373ffffffffffffffffffffffffffffffffffffffff161415611f0057611efb81612329565b611f3f565b8173ffffffffffffffffffffffffffffffffffffffff168373ffffffffffffffffffffffffffffffffffffffff1614611f3e57611f3d8382612372565b5b5b600073ffffffffffffffffffffffffffffffffffffffff168273ffffffffffffffffffffffffffffffffffffffff161415611f8257611f7d816124df565b611fc1565b8273ffffffffffffffffffffffffffffffffffffffff168273ffffffffffffffffffffffffffffffffffffffff1614611fc057611fbf82826125b0565b5b5b505050565b600073ffffffffffffffffffffffffffffffffffffffff168273ffffffffffffffffffffffffffffffffffffffff161415612036576040517f08c379a000000000000000000000000000000000000000000000000000000000815260040161202d90612fee565b60405180910390fd5b61203f81611b56565b1561207f576040517f08c379a000000000000000000000000000000000000000000000000000000000815260040161207690612f2e565b60405180910390fd5b61208b60008383611bc2565b6001600360008473ffffffffffffffffffffffffffffffffffffffff1673ffffffffffffffffffffffffffffffffffffffff16815260200190815260200160002060008282546120db919061319e565b92505081905550816002600083815260200190815260200160002060006101000a81548173ffffffffffffffffffffffffffffffffffffffff021916908373ffffffffffffffffffffffffffffffffffffffff160217905550808273ffffffffffffffffffffffffffffffffffffffff16600073ffffffffffffffffffffffffffffffffffffffff167fddf252ad1be2c89b69c2b068fc378daa952ba7f163c4a11628f55a4df523b3ef60405160405180910390a461219c60008383611bd2565b5050565b6000808273ffffffffffffffffffffffffffffffffffffffff163b119050919050565b6060600082141561220b576040518060400160405280600181526020017f3000000000000000000000000000000000000000000000000000000000000000815250905061231f565b600082905060005b6000821461223d57808061222690613372565b915050600a8261223691906131f4565b9150612213565b60008167ffffffffffffffff811115612259576122586134d7565b5b6040519080825280601f01601f19166020018201604052801561228b5781602001600182028036833780820191505090505b5090505b60008514612318576001826122a49190613225565b9150600a856122b391906133bb565b60306122bf919061319e565b60f81b8183815181106122d5576122d46134a8565b5b60200101907effffffffffffffffffffffffffffffffffffffffffffffffffffffffffffff1916908160001a905350600a8561231191906131f4565b945061228f565b8093505050505b919050565b505050565b6008805490506009600083815260200190815260200160002081905550600881908060018154018082558091505060019003906000526020600020016000909190919091505550565b6000600161237f84610d81565b6123899190613225565b905060006007600084815260200190815260200160002054905081811461246e576000600660008673ffffffffffffffffffffffffffffffffffffffff1673ffffffffffffffffffffffffffffffffffffffff168152602001908152602001600020600084815260200190815260200160002054905080600660008773ffffffffffffffffffffffffffffffffffffffff1673ffffffffffffffffffffffffffffffffffffffff168152602001908152602001600020600084815260200190815260200160002081905550816007600083815260200190815260200160002081905550505b6007600084815260200190815260200160002060009055600660008573ffffffffffffffffffffffffffffffffffffffff1673ffffffffffffffffffffffffffffffffffffffff16815260200190815260200160002060008381526020019081526020016000206000905550505050565b600060016008805490506124f39190613225565b9050600060096000848152602001908152602001600020549050600060088381548110612523576125226134a8565b5b906000526020600020015490508060088381548110612545576125446134a8565b5b90600052602060002001819055508160096000838152602001908152602001600020819055506009600085815260200190815260200160002060009055600880548061259457612593613479565b5b6001900381819060005260206000200160009055905550505050565b60006125bb83610d81565b905081600660008573ffffffffffffffffffffffffffffffffffffffff1673ffffffffffffffffffffffffffffffffffffffff168152602001908152602001600020600083815260200190815260200160002081905550806007600084815260200190815260200160002081905550505050565b82805461263b9061330f565b90600052602060002090601f01602090048101928261265d57600085556126a4565b82601f1061267657805160ff19168380011785556126a4565b828001600101855582156126a4579182015b828111156126a3578251825591602001919060010190612688565b5b5090506126b191906126b5565b5090565b5b808211156126ce5760008160009055506001016126b6565b5090565b60006126e56126e0846130ee565b6130c9565b9050828152602081018484840111156127015761270061350b565b5b61270c8482856132cd565b509392505050565b60006127276127228461311f565b6130c9565b9050828152602081018484840111156127435761274261350b565b5b61274e8482856132cd565b509392505050565b60008135905061276581613960565b92915050565b60008135905061277a81613977565b92915050565b60008135905061278f8161398e565b92915050565b6000815190506127a48161398e565b92915050565b600082601f8301126127bf576127be613506565b5b81356127cf8482602086016126d2565b91505092915050565b600082601f8301126127ed576127ec613506565b5b81356127fd848260208601612714565b91505092915050565b600081359050612815816139a5565b92915050565b60006020828403121561283157612830613515565b5b600061283f84828501612756565b91505092915050565b6000806040838503121561285f5761285e613515565b5b600061286d85828601612756565b925050602061287e85828601612756565b9150509250929050565b6000806000606084860312156128a1576128a0613515565b5b60006128af86828701612756565b93505060206128c086828701612756565b92505060406128d186828701612806565b9150509250925092565b600080600080608085870312156128f5576128f4613515565b5b600061290387828801612756565b945050602061291487828801612756565b935050604061292587828801612806565b925050606085013567ffffffffffffffff81111561294657612945613510565b5b612952878288016127aa565b91505092959194509250565b6000806040838503121561297557612974613515565b5b600061298385828601612756565b92505060206129948582860161276b565b9150509250929050565b600080604083850312156129b5576129b4613515565b5b60006129c385828601612756565b92505060206129d485828601612806565b9150509250929050565b6000602082840312156129f4576129f3613515565b5b6000612a0284828501612780565b91505092915050565b600060208284031215612a2157612a20613515565b5b6000612a2f84828501612795565b91505092915050565b600060208284031215612a4e57612a4d613515565b5b600082013567ffffffffffffffff811115612a6c57612a6b613510565b5b612a78848285016127d8565b91505092915050565b600060208284031215612a9757612a96613515565b5b6000612aa584828501612806565b91505092915050565b612ab781613259565b82525050565b612ac68161326b565b82525050565b6000612ad782613150565b612ae18185613166565b9350612af18185602086016132dc565b612afa8161351a565b840191505092915050565b6000612b108261315b565b612b1a8185613182565b9350612b2a8185602086016132dc565b612b338161351a565b840191505092915050565b6000612b498261315b565b612b538185613193565b9350612b638185602086016132dc565b80840191505092915050565b6000612b7c602b83613182565b9150612b878261352b565b604082019050919050565b6000612b9f603283613182565b9150612baa8261357a565b604082019050919050565b6000612bc2602683613182565b9150612bcd826135c9565b604082019050919050565b6000612be5602583613182565b9150612bf082613618565b604082019050919050565b6000612c08601c83613182565b9150612c1382613667565b602082019050919050565b6000612c2b602483613182565b9150612c3682613690565b604082019050919050565b6000612c4e601983613182565b9150612c59826136df565b602082019050919050565b6000612c71602983613182565b9150612c7c82613708565b604082019050919050565b6000612c94602e83613182565b9150612c9f82613757565b604082019050919050565b6000612cb7603e83613182565b9150612cc2826137a6565b604082019050919050565b6000612cda602083613182565b9150612ce5826137f5565b602082019050919050565b6000612cfd602083613182565b9150612d088261381e565b602082019050919050565b6000612d20601883613182565b9150612d2b82613847565b602082019050919050565b6000612d43602183613182565b9150612d4e82613870565b604082019050919050565b6000612d66600083613177565b9150612d71826138bf565b600082019050919050565b6000612d89602c83613182565b9150612d94826138c2565b604082019050919050565b6000612dac602e83613182565b9150612db782613911565b604082019050919050565b612dcb816132c3565b82525050565b6000612ddd8285612b3e565b9150612de98284612b3e565b91508190509392505050565b6000612e0082612d59565b9150819050919050565b6000602082019050612e1f6000830184612aae565b92915050565b6000608082019050612e3a6000830187612aae565b612e476020830186612aae565b612e546040830185612dc2565b8181036060830152612e668184612acc565b905095945050505050565b6000602082019050612e866000830184612abd565b92915050565b60006020820190508181036000830152612ea68184612b05565b905092915050565b60006020820190508181036000830152612ec781612b6f565b9050919050565b60006020820190508181036000830152612ee781612b92565b9050919050565b60006020820190508181036000830152612f0781612bb5565b9050919050565b60006020820190508181036000830152612f2781612bd8565b9050919050565b60006020820190508181036000830152612f4781612bfb565b9050919050565b60006020820190508181036000830152612f6781612c1e565b9050919050565b60006020820190508181036000830152612f8781612c41565b9050919050565b60006020820190508181036000830152612fa781612c64565b9050919050565b60006020820190508181036000830152612fc781612c87565b9050919050565b60006020820190508181036000830152612fe781612caa565b9050919050565b6000602082019050818103600083015261300781612ccd565b9050919050565b6000602082019050818103600083015261302781612cf0565b9050919050565b6000602082019050818103600083015261304781612d13565b9050919050565b6000602082019050818103600083015261306781612d36565b9050919050565b6000602082019050818103600083015261308781612d7c565b9050919050565b600060208201905081810360008301526130a781612d9f565b9050919050565b60006020820190506130c36000830184612dc2565b92915050565b60006130d36130e4565b90506130df8282613341565b919050565b6000604051905090565b600067ffffffffffffffff821115613109576131086134d7565b5b6131128261351a565b9050602081019050919050565b600067ffffffffffffffff82111561313a576131396134d7565b5b6131438261351a565b9050602081019050919050565b600081519050919050565b600081519050919050565b600082825260208201905092915050565b600081905092915050565b600082825260208201905092915050565b600081905092915050565b60006131a9826132c3565b91506131b4836132c3565b9250827fffffffffffffffffffffffffffffffffffffffffffffffffffffffffffffffff038211156131e9576131e86133ec565b5b828201905092915050565b60006131ff826132c3565b915061320a836132c3565b92508261321a5761321961341b565b5b828204905092915050565b6000613230826132c3565b915061323b836132c3565b92508282101561324e5761324d6133ec565b5b828203905092915050565b6000613264826132a3565b9050919050565b60008115159050919050565b60007fffffffff0000000000000000000000000000000000000000000000000000000082169050919050565b600073ffffffffffffffffffffffffffffffffffffffff82169050919050565b6000819050919050565b82818337600083830152505050565b60005b838110156132fa5780820151818401526020810190506132df565b83811115613309576000848401525b50505050565b6000600282049050600182168061332757607f821691505b6020821081141561333b5761333a61344a565b5b50919050565b61334a8261351a565b810181811067ffffffffffffffff82111715613369576133686134d7565b5b80604052505050565b600061337d826132c3565b91507fffffffffffffffffffffffffffffffffffffffffffffffffffffffffffffffff8214156133b0576133af6133ec565b5b600182019050919050565b60006133c6826132c3565b91506133d1836132c3565b9250826133e1576133e061341b565b5b828206905092915050565b7f4e487b7100000000000000000000000000000000000000000000000000000000600052601160045260246000fd5b7f4e487b7100000000000000000000000000000000000000000000000000000000600052601260045260246000fd5b7f4e487b7100000000000000000000000000000000000000000000000000000000600052602260045260246000fd5b7f4e487b7100000000000000000000000000000000000000000000000000000000600052603160045260246000fd5b7f4e487b7100000000000000000000000000000000000000000000000000000000600052603260045260246000fd5b7f4e487b7100000000000000000000000000000000000000000000000000000000600052604160045260246000fd5b600080fd5b600080fd5b600080fd5b600080fd5b6000601f19601f8301169050919050565b7f455243373231456e756d657261626c653a206f776e657220696e646578206f7560008201527f74206f6620626f756e6473000000000000000000000000000000000000000000602082015250565b7f4552433732313a207472616e7366657220746f206e6f6e20455243373231526560008201527f63656976657220696d706c656d656e7465720000000000000000000000000000602082015250565b7f4f776e61626c653a206e6577206f776e657220697320746865207a65726f206160008201527f6464726573730000000000000000000000000000000000000000000000000000602082015250565b7f4552433732313a207472616e736665722066726f6d20696e636f72726563742060008201527f6f776e6572000000000000000000000000000000000000000000000000000000602082015250565b7f4552433732313a20746f6b656e20616c7265616479206d696e74656400000000600082015250565b7f4552433732313a207472616e7366657220746f20746865207a65726f2061646460008201527f7265737300000000000000000000000000000000000000000000000000000000602082015250565b7f4552433732313a20617070726f766520746f2063616c6c657200000000000000600082015250565b7f4552433732313a2061646472657373207a65726f206973206e6f74206120766160008201527f6c6964206f776e65720000000000000000000000000000000000000000000000602082015250565b7f45524337323155524953746f726167653a2055524920736574206f66206e6f6e60008201527f6578697374656e7420746f6b656e000000000000000000000000000000000000602082015250565b7f4552433732313a20617070726f76652063616c6c6572206973206e6f7420746f60008201527f6b656e206f776e6572206e6f7220617070726f76656420666f7220616c6c0000602082015250565b7f4552433732313a206d696e7420746f20746865207a65726f2061646472657373600082015250565b7f4f776e61626c653a2063616c6c6572206973206e6f7420746865206f776e6572600082015250565b7f4552433732313a20696e76616c696420746f6b656e2049440000000000000000600082015250565b7f4552433732313a20617070726f76616c20746f2063757272656e74206f776e6560008201527f7200000000000000000000000000000000000000000000000000000000000000602082015250565b50565b7f455243373231456e756d657261626c653a20676c6f62616c20696e646578206f60008201527f7574206f6620626f756e64730000000000000000000000000000000000000000602082015250565b7f4552433732313a2063616c6c6572206973206e6f7420746f6b656e206f776e6560008201527f72206e6f7220617070726f766564000000000000000000000000000000000000602082015250565b61396981613259565b811461397457600080fd5b50565b6139808161326b565b811461398b57600080fd5b50565b61399781613277565b81146139a257600080fd5b50565b6139ae816132c3565b81146139b957600080fd5b5056fea26469706673582212202c735e36763f0a170b3803aac76fbb024c5db84036c58c578e848fb85d36bbe064736f6c63430008070033",
  "devdoc": {
    "kind": "dev",
    "methods": {
      "approve(address,uint256)": {
        "details": "See {IERC721-approve}."
      },
      "balanceOf(address)": {
        "details": "See {IERC721-balanceOf}."
      },
      "getApproved(uint256)": {
        "details": "See {IERC721-getApproved}."
      },
      "isApprovedForAll(address,address)": {
        "details": "See {IERC721-isApprovedForAll}."
      },
      "name()": {
        "details": "See {IERC721Metadata-name}."
      },
      "owner()": {
        "details": "Returns the address of the current owner."
      },
      "ownerOf(uint256)": {
        "details": "See {IERC721-ownerOf}."
      },
      "renounceOwnership()": {
        "details": "Leaves the contract without owner. It will not be possible to call `onlyOwner` functions anymore. Can only be called by the current owner. NOTE: Renouncing ownership will leave the contract without an owner, thereby removing any functionality that is only available to the owner."
      },
      "safeTransferFrom(address,address,uint256)": {
        "details": "See {IERC721-safeTransferFrom}."
      },
      "safeTransferFrom(address,address,uint256,bytes)": {
        "details": "See {IERC721-safeTransferFrom}."
      },
      "setApprovalForAll(address,bool)": {
        "details": "See {IERC721-setApprovalForAll}."
      },
      "symbol()": {
        "details": "See {IERC721Metadata-symbol}."
      },
      "tokenByIndex(uint256)": {
        "details": "See {IERC721Enumerable-tokenByIndex}."
      },
      "tokenOfOwnerByIndex(address,uint256)": {
        "details": "See {IERC721Enumerable-tokenOfOwnerByIndex}."
      },
      "totalSupply()": {
        "details": "See {IERC721Enumerable-totalSupply}."
      },
      "transferFrom(address,address,uint256)": {
        "details": "See {IERC721-transferFrom}."
      },
      "transferOwnership(address)": {
        "details": "Transfers ownership of the contract to a new account (`newOwner`). Can only be called by the current owner."
      }
    },
    "version": 1
  },
  "userdoc": {
    "kind": "user",
    "methods": {},
    "version": 1
  },
  "storageLayout": {
    "storage": [
      {
        "astId": 138,
        "contract": "contracts/MyToken.sol:MyToken",
        "label": "_name",
        "offset": 0,
        "slot": "0",
        "type": "t_string_storage"
      },
      {
        "astId": 140,
        "contract": "contracts/MyToken.sol:MyToken",
        "label": "_symbol",
        "offset": 0,
        "slot": "1",
        "type": "t_string_storage"
      },
      {
        "astId": 144,
        "contract": "contracts/MyToken.sol:MyToken",
        "label": "_owners",
        "offset": 0,
        "slot": "2",
        "type": "t_mapping(t_uint256,t_address)"
      },
      {
        "astId": 148,
        "contract": "contracts/MyToken.sol:MyToken",
        "label": "_balances",
        "offset": 0,
        "slot": "3",
        "type": "t_mapping(t_address,t_uint256)"
      },
      {
        "astId": 152,
        "contract": "contracts/MyToken.sol:MyToken",
        "label": "_tokenApprovals",
        "offset": 0,
        "slot": "4",
        "type": "t_mapping(t_uint256,t_address)"
      },
      {
        "astId": 158,
        "contract": "contracts/MyToken.sol:MyToken",
        "label": "_operatorApprovals",
        "offset": 0,
        "slot": "5",
        "type": "t_mapping(t_address,t_mapping(t_address,t_bool))"
      },
      {
        "astId": 1128,
        "contract": "contracts/MyToken.sol:MyToken",
        "label": "_ownedTokens",
        "offset": 0,
        "slot": "6",
        "type": "t_mapping(t_address,t_mapping(t_uint256,t_uint256))"
      },
      {
        "astId": 1132,
        "contract": "contracts/MyToken.sol:MyToken",
        "label": "_ownedTokensIndex",
        "offset": 0,
        "slot": "7",
        "type": "t_mapping(t_uint256,t_uint256)"
      },
      {
        "astId": 1135,
        "contract": "contracts/MyToken.sol:MyToken",
        "label": "_allTokens",
        "offset": 0,
        "slot": "8",
        "type": "t_array(t_uint256)dyn_storage"
      },
      {
        "astId": 1139,
        "contract": "contracts/MyToken.sol:MyToken",
        "label": "_allTokensIndex",
        "offset": 0,
        "slot": "9",
        "type": "t_mapping(t_uint256,t_uint256)"
      },
      {
        "astId": 1464,
        "contract": "contracts/MyToken.sol:MyToken",
        "label": "_tokenURIs",
        "offset": 0,
        "slot": "10",
        "type": "t_mapping(t_uint256,t_string_storage)"
      },
      {
        "astId": 7,
        "contract": "contracts/MyToken.sol:MyToken",
        "label": "_owner",
        "offset": 0,
        "slot": "11",
        "type": "t_address"
      },
      {
        "astId": 2318,
        "contract": "contracts/MyToken.sol:MyToken",
        "label": "s_addressToCntMinted",
        "offset": 0,
        "slot": "12",
        "type": "t_mapping(t_address,t_uint256)"
      },
      {
        "astId": 2327,
        "contract": "contracts/MyToken.sol:MyToken",
        "label": "s_tokenIdCounter",
        "offset": 0,
        "slot": "13",
        "type": "t_struct(Counter)1957_storage"
      }
    ],
    "types": {
      "t_address": {
        "encoding": "inplace",
        "label": "address",
        "numberOfBytes": "20"
      },
      "t_array(t_uint256)dyn_storage": {
        "base": "t_uint256",
        "encoding": "dynamic_array",
        "label": "uint256[]",
        "numberOfBytes": "32"
      },
      "t_bool": {
        "encoding": "inplace",
        "label": "bool",
        "numberOfBytes": "1"
      },
      "t_mapping(t_address,t_bool)": {
        "encoding": "mapping",
        "key": "t_address",
        "label": "mapping(address => bool)",
        "numberOfBytes": "32",
        "value": "t_bool"
      },
      "t_mapping(t_address,t_mapping(t_address,t_bool))": {
        "encoding": "mapping",
        "key": "t_address",
        "label": "mapping(address => mapping(address => bool))",
        "numberOfBytes": "32",
        "value": "t_mapping(t_address,t_bool)"
      },
      "t_mapping(t_address,t_mapping(t_uint256,t_uint256))": {
        "encoding": "mapping",
        "key": "t_address",
        "label": "mapping(address => mapping(uint256 => uint256))",
        "numberOfBytes": "32",
        "value": "t_mapping(t_uint256,t_uint256)"
      },
      "t_mapping(t_address,t_uint256)": {
        "encoding": "mapping",
        "key": "t_address",
        "label": "mapping(address => uint256)",
        "numberOfBytes": "32",
        "value": "t_uint256"
      },
      "t_mapping(t_uint256,t_address)": {
        "encoding": "mapping",
        "key": "t_uint256",
        "label": "mapping(uint256 => address)",
        "numberOfBytes": "32",
        "value": "t_address"
      },
      "t_mapping(t_uint256,t_string_storage)": {
        "encoding": "mapping",
        "key": "t_uint256",
        "label": "mapping(uint256 => string)",
        "numberOfBytes": "32",
        "value": "t_string_storage"
      },
      "t_mapping(t_uint256,t_uint256)": {
        "encoding": "mapping",
        "key": "t_uint256",
        "label": "mapping(uint256 => uint256)",
        "numberOfBytes": "32",
        "value": "t_uint256"
      },
      "t_string_storage": {
        "encoding": "bytes",
        "label": "string",
        "numberOfBytes": "32"
      },
      "t_struct(Counter)1957_storage": {
        "encoding": "inplace",
        "label": "struct Counters.Counter",
        "members": [
          {
            "astId": 1956,
            "contract": "contracts/MyToken.sol:MyToken",
            "label": "_value",
            "offset": 0,
            "slot": "0",
            "type": "t_uint256"
          }
        ],
        "numberOfBytes": "32"
      },
      "t_uint256": {
        "encoding": "inplace",
        "label": "uint256",
        "numberOfBytes": "32"
      }
    }
  }
}